{
  "_format": "hh-sol-artifact-1",
  "contractName": "Project",
  "sourceName": "contracts/Project.sol",
  "abi": [
    {
      "inputs": [
        {
          "internalType": "uint256",
          "name": "minimum",
          "type": "uint256"
        },
        {
          "internalType": "address",
          "name": "_creator",
          "type": "address"
        },
        {
          "internalType": "string",
          "name": "name",
          "type": "string"
        },
        {
          "internalType": "string",
          "name": "description",
          "type": "string"
        },
        {
          "internalType": "string",
          "name": "image",
          "type": "string"
        },
        {
          "internalType": "uint256",
          "name": "target",
          "type": "uint256"
        }
      ],
      "stateMutability": "nonpayable",
      "type": "constructor"
    },
    {
      "inputs": [
        {
          "internalType": "uint256",
          "name": "index",
          "type": "uint256"
        }
      ],
      "name": "MakePayment",
      "outputs": [],
      "stateMutability": "nonpayable",
      "type": "function"
    },
    {
      "inputs": [],
      "name": "ProjectDescription",
      "outputs": [
        {
          "internalType": "string",
          "name": "",
          "type": "string"
        }
      ],
      "stateMutability": "view",
      "type": "function"
    },
    {
      "inputs": [],
      "name": "ProjectName",
      "outputs": [
        {
          "internalType": "string",
          "name": "",
          "type": "string"
        }
      ],
      "stateMutability": "view",
      "type": "function"
    },
    {
      "inputs": [
        {
          "internalType": "uint256",
          "name": "index",
          "type": "uint256"
        }
      ],
      "name": "approveRequest",
      "outputs": [],
      "stateMutability": "nonpayable",
      "type": "function"
    },
    {
      "inputs": [
        {
          "internalType": "address",
          "name": "",
          "type": "address"
        }
      ],
      "name": "approvers",
      "outputs": [
        {
          "internalType": "bool",
          "name": "",
          "type": "bool"
        }
      ],
      "stateMutability": "view",
      "type": "function"
    },
    {
      "inputs": [],
      "name": "approversCount",
      "outputs": [
        {
          "internalType": "uint256",
          "name": "",
          "type": "uint256"
        }
      ],
      "stateMutability": "view",
      "type": "function"
    },
    {
      "inputs": [],
      "name": "contribute",
      "outputs": [],
      "stateMutability": "payable",
      "type": "function"
    },
    {
      "inputs": [
        {
          "internalType": "string",
          "name": "description",
          "type": "string"
        },
        {
          "internalType": "uint256",
          "name": "value",
          "type": "uint256"
        },
        {
          "internalType": "address",
          "name": "recipient",
          "type": "address"
        }
      ],
      "name": "createPayment",
      "outputs": [],
      "stateMutability": "nonpayable",
      "type": "function"
    },
    {
      "inputs": [],
      "name": "creator",
      "outputs": [
        {
          "internalType": "address",
          "name": "",
          "type": "address"
        }
      ],
      "stateMutability": "view",
      "type": "function"
    },
    {
      "inputs": [],
      "name": "getDetails",
      "outputs": [
        {
          "internalType": "uint256",
          "name": "",
          "type": "uint256"
        },
        {
          "internalType": "uint256",
          "name": "",
          "type": "uint256"
        },
        {
          "internalType": "uint256",
          "name": "",
          "type": "uint256"
        },
        {
          "internalType": "uint256",
          "name": "",
          "type": "uint256"
        },
        {
          "internalType": "address",
          "name": "",
          "type": "address"
        },
        {
          "internalType": "string",
          "name": "",
          "type": "string"
        },
        {
          "internalType": "string",
          "name": "",
          "type": "string"
        },
        {
          "internalType": "string",
          "name": "",
          "type": "string"
        },
        {
          "internalType": "uint256",
          "name": "",
          "type": "uint256"
        }
      ],
      "stateMutability": "view",
      "type": "function"
    },
    {
      "inputs": [],
      "name": "getPayments",
      "outputs": [
        {
          "internalType": "uint256",
          "name": "",
          "type": "uint256"
        }
      ],
      "stateMutability": "view",
      "type": "function"
    },
    {
      "inputs": [],
      "name": "imageUrl",
      "outputs": [
        {
          "internalType": "string",
          "name": "",
          "type": "string"
        }
      ],
      "stateMutability": "view",
      "type": "function"
    },
    {
      "inputs": [],
      "name": "minimumContribution",
      "outputs": [
        {
          "internalType": "uint256",
          "name": "",
          "type": "uint256"
        }
      ],
      "stateMutability": "view",
      "type": "function"
    },
    {
      "inputs": [
        {
          "internalType": "uint256",
          "name": "",
          "type": "uint256"
        }
      ],
      "name": "payments",
      "outputs": [
        {
          "internalType": "string",
          "name": "description",
          "type": "string"
        },
        {
          "internalType": "uint256",
          "name": "value",
          "type": "uint256"
        },
        {
          "internalType": "address",
          "name": "recipient",
          "type": "address"
        },
        {
          "internalType": "bool",
          "name": "complete",
          "type": "bool"
        },
        {
          "internalType": "uint256",
          "name": "approvalCount",
          "type": "uint256"
        }
      ],
      "stateMutability": "view",
      "type": "function"
    },
    {
      "inputs": [],
      "name": "projectTarget",
      "outputs": [
        {
          "internalType": "uint256",
          "name": "",
          "type": "uint256"
        }
      ],
      "stateMutability": "view",
      "type": "function"
    }
  ],
  "bytecode": "0x60806040523480156200001157600080fd5b50604051620018a6380380620018a68339818101604052810190620000379190620003ca565b84600160006101000a81548173ffffffffffffffffffffffffffffffffffffffff021916908373ffffffffffffffffffffffffffffffffffffffff16021790555085600481905550836005908051906020019062000097929190620000dd565b508260069080519060200190620000b0929190620000dd565b508160079080519060200190620000c9929190620000dd565b508060088190555050505050505062000528565b828054620000eb90620004f2565b90600052602060002090601f0160209004810192826200010f57600085556200015b565b82601f106200012a57805160ff19168380011785556200015b565b828001600101855582156200015b579182015b828111156200015a5782518255916020019190600101906200013d565b5b5090506200016a91906200016e565b5090565b5b80821115620001895760008160009055506001016200016f565b5090565b6000604051905090565b600080fd5b600080fd5b6000819050919050565b620001b681620001a1565b8114620001c257600080fd5b50565b600081519050620001d681620001ab565b92915050565b600073ffffffffffffffffffffffffffffffffffffffff82169050919050565b60006200020982620001dc565b9050919050565b6200021b81620001fc565b81146200022757600080fd5b50565b6000815190506200023b8162000210565b92915050565b600080fd5b600080fd5b6000601f19601f8301169050919050565b7f4e487b7100000000000000000000000000000000000000000000000000000000600052604160045260246000fd5b62000296826200024b565b810181811067ffffffffffffffff82111715620002b857620002b76200025c565b5b80604052505050565b6000620002cd6200018d565b9050620002db82826200028b565b919050565b600067ffffffffffffffff821115620002fe57620002fd6200025c565b5b62000309826200024b565b9050602081019050919050565b60005b838110156200033657808201518184015260208101905062000319565b8381111562000346576000848401525b50505050565b6000620003636200035d84620002e0565b620002c1565b90508281526020810184848401111562000382576200038162000246565b5b6200038f84828562000316565b509392505050565b600082601f830112620003af57620003ae62000241565b5b8151620003c18482602086016200034c565b91505092915050565b60008060008060008060c08789031215620003ea57620003e962000197565b5b6000620003fa89828a01620001c5565b96505060206200040d89828a016200022a565b955050604087015167ffffffffffffffff8111156200043157620004306200019c565b5b6200043f89828a0162000397565b945050606087015167ffffffffffffffff8111156200046357620004626200019c565b5b6200047189828a0162000397565b935050608087015167ffffffffffffffff8111156200049557620004946200019c565b5b620004a389828a0162000397565b92505060a0620004b689828a01620001c5565b9150509295509295509295565b7f4e487b7100000000000000000000000000000000000000000000000000000000600052602260045260246000fd5b600060028204905060018216806200050b57607f821691505b60208210811415620005225762000521620004c3565b5b50919050565b61136e80620005386000396000f3fe6080604052600436106100e85760003560e01c8063937e09b11161008a578063d5f9e6c711610059578063d5f9e6c7146102ea578063d7bb99ba14610315578063d7d1bbdb1461031f578063fbbf93a014610348576100e8565b8063937e09b11461023e5780639ee28d4514610269578063aba8315014610294578063d56bd142146102bf576100e8565b806331152362116100c6578063311523621461017e5780634ddd0c40146101a757806382fde093146101d257806387d81789146101fd576100e8565b806302d05d3f146100ed57806303120d46146101185780630a14439114610141575b600080fd5b3480156100f957600080fd5b5061010261037b565b60405161010f9190610d8a565b60405180910390f35b34801561012457600080fd5b5061013f600480360381019061013a9190610f61565b6103a1565b005b34801561014d57600080fd5b5061016860048036038101906101639190610fd0565b6104b0565b6040516101759190611018565b60405180910390f35b34801561018a57600080fd5b506101a560048036038101906101a09190611033565b6104d0565b005b3480156101b357600080fd5b506101bc61060d565b6040516101c991906110e8565b60405180910390f35b3480156101de57600080fd5b506101e761069b565b6040516101f49190611119565b60405180910390f35b34801561020957600080fd5b50610224600480360381019061021f9190611033565b6106a1565b604051610235959493929190611134565b60405180910390f35b34801561024a57600080fd5b5061025361079c565b6040516102609190611119565b60405180910390f35b34801561027557600080fd5b5061027e6107a2565b60405161028b9190611119565b60405180910390f35b3480156102a057600080fd5b506102a96107a8565b6040516102b691906110e8565b60405180910390f35b3480156102cb57600080fd5b506102d4610836565b6040516102e19190611119565b60405180910390f35b3480156102f657600080fd5b506102ff610842565b60405161030c91906110e8565b60405180910390f35b61031d6108d0565b005b34801561032b57600080fd5b5061034660048036038101906103419190611033565b610951565b005b34801561035457600080fd5b5061035d610a9d565b6040516103729998979695949392919061118e565b60405180910390f35b600160009054906101000a900473ffffffffffffffffffffffffffffffffffffffff1681565b600160009054906101000a900473ffffffffffffffffffffffffffffffffffffffff1673ffffffffffffffffffffffffffffffffffffffff163373ffffffffffffffffffffffffffffffffffffffff16146103fb57600080fd5b600080600181600181540180825580915050039060005260206000209060050201905083816000019080519060200190610436929190610ca6565b50828160010181905550818160020160006101000a81548173ffffffffffffffffffffffffffffffffffffffff021916908373ffffffffffffffffffffffffffffffffffffffff16021790555060008160020160146101000a81548160ff0219169083151502179055506000816003018190555050505050565b60026020528060005260406000206000915054906101000a900460ff1681565b600160009054906101000a900473ffffffffffffffffffffffffffffffffffffffff1673ffffffffffffffffffffffffffffffffffffffff163373ffffffffffffffffffffffffffffffffffffffff161461052a57600080fd5b600080828154811061053f5761053e611230565b5b9060005260206000209060050201905060018160030154101561056157600080fd5b8060020160149054906101000a900460ff161561057d57600080fd5b8060020160009054906101000a900473ffffffffffffffffffffffffffffffffffffffff1673ffffffffffffffffffffffffffffffffffffffff166108fc82600101549081150290604051600060405180830381858888f193505050501580156105eb573d6000803e3d6000fd5b5060018160020160146101000a81548160ff0219169083151502179055505050565b6006805461061a9061128e565b80601f01602080910402602001604051908101604052809291908181526020018280546106469061128e565b80156106935780601f1061066857610100808354040283529160200191610693565b820191906000526020600020905b81548152906001019060200180831161067657829003601f168201915b505050505081565b60035481565b600081815481106106b157600080fd5b90600052602060002090600502016000915090508060000180546106d49061128e565b80601f01602080910402602001604051908101604052809291908181526020018280546107009061128e565b801561074d5780601f106107225761010080835404028352916020019161074d565b820191906000526020600020905b81548152906001019060200180831161073057829003601f168201915b5050505050908060010154908060020160009054906101000a900473ffffffffffffffffffffffffffffffffffffffff16908060020160149054906101000a900460ff16908060030154905085565b60045481565b60085481565b600780546107b59061128e565b80601f01602080910402602001604051908101604052809291908181526020018280546107e19061128e565b801561082e5780601f106108035761010080835404028352916020019161082e565b820191906000526020600020905b81548152906001019060200180831161081157829003601f168201915b505050505081565b60008080549050905090565b6005805461084f9061128e565b80601f016020809104026020016040519081016040528092919081815260200182805461087b9061128e565b80156108c85780601f1061089d576101008083540402835291602001916108c8565b820191906000526020600020905b8154815290600101906020018083116108ab57829003601f168201915b505050505081565b6004543410156108df57600080fd5b6001600260003373ffffffffffffffffffffffffffffffffffffffff1673ffffffffffffffffffffffffffffffffffffffff16815260200190815260200160002060006101000a81548160ff0219169083151502179055506003600081548092919061094a906112ef565b9190505550565b600080828154811061096657610965611230565b5b90600052602060002090600502019050600260003373ffffffffffffffffffffffffffffffffffffffff1673ffffffffffffffffffffffffffffffffffffffff16815260200190815260200160002060009054906101000a900460ff166109cc57600080fd5b8060040160003373ffffffffffffffffffffffffffffffffffffffff1673ffffffffffffffffffffffffffffffffffffffff16815260200190815260200160002060009054906101000a900460ff1615610a2557600080fd5b60018160040160003373ffffffffffffffffffffffffffffffffffffffff1673ffffffffffffffffffffffffffffffffffffffff16815260200190815260200160002060006101000a81548160ff021916908315150217905550806003016000815480929190610a94906112ef565b91905055505050565b60008060008060006060806060600060045447600080549050600354600160009054906101000a900473ffffffffffffffffffffffffffffffffffffffff16600560066007600854838054610af19061128e565b80601f0160208091040260200160405190810160405280929190818152602001828054610b1d9061128e565b8015610b6a5780601f10610b3f57610100808354040283529160200191610b6a565b820191906000526020600020905b815481529060010190602001808311610b4d57829003601f168201915b50505050509350828054610b7d9061128e565b80601f0160208091040260200160405190810160405280929190818152602001828054610ba99061128e565b8015610bf65780601f10610bcb57610100808354040283529160200191610bf6565b820191906000526020600020905b815481529060010190602001808311610bd957829003601f168201915b50505050509250818054610c099061128e565b80601f0160208091040260200160405190810160405280929190818152602001828054610c359061128e565b8015610c825780601f10610c5757610100808354040283529160200191610c82565b820191906000526020600020905b815481529060010190602001808311610c6557829003601f168201915b50505050509150985098509850985098509850985098509850909192939495969798565b828054610cb29061128e565b90600052602060002090601f016020900481019282610cd45760008555610d1b565b82601f10610ced57805160ff1916838001178555610d1b565b82800160010185558215610d1b579182015b82811115610d1a578251825591602001919060010190610cff565b5b509050610d289190610d2c565b5090565b5b80821115610d45576000816000905550600101610d2d565b5090565b600073ffffffffffffffffffffffffffffffffffffffff82169050919050565b6000610d7482610d49565b9050919050565b610d8481610d69565b82525050565b6000602082019050610d9f6000830184610d7b565b92915050565b6000604051905090565b600080fd5b600080fd5b600080fd5b600080fd5b6000601f19601f8301169050919050565b7f4e487b7100000000000000000000000000000000000000000000000000000000600052604160045260246000fd5b610e0c82610dc3565b810181811067ffffffffffffffff82111715610e2b57610e2a610dd4565b5b80604052505050565b6000610e3e610da5565b9050610e4a8282610e03565b919050565b600067ffffffffffffffff821115610e6a57610e69610dd4565b5b610e7382610dc3565b9050602081019050919050565b82818337600083830152505050565b6000610ea2610e9d84610e4f565b610e34565b905082815260208101848484011115610ebe57610ebd610dbe565b5b610ec9848285610e80565b509392505050565b600082601f830112610ee657610ee5610db9565b5b8135610ef6848260208601610e8f565b91505092915050565b6000819050919050565b610f1281610eff565b8114610f1d57600080fd5b50565b600081359050610f2f81610f09565b92915050565b610f3e81610d69565b8114610f4957600080fd5b50565b600081359050610f5b81610f35565b92915050565b600080600060608486031215610f7a57610f79610daf565b5b600084013567ffffffffffffffff811115610f9857610f97610db4565b5b610fa486828701610ed1565b9350506020610fb586828701610f20565b9250506040610fc686828701610f4c565b9150509250925092565b600060208284031215610fe657610fe5610daf565b5b6000610ff484828501610f4c565b91505092915050565b60008115159050919050565b61101281610ffd565b82525050565b600060208201905061102d6000830184611009565b92915050565b60006020828403121561104957611048610daf565b5b600061105784828501610f20565b91505092915050565b600081519050919050565b600082825260208201905092915050565b60005b8381101561109a57808201518184015260208101905061107f565b838111156110a9576000848401525b50505050565b60006110ba82611060565b6110c4818561106b565b93506110d481856020860161107c565b6110dd81610dc3565b840191505092915050565b6000602082019050818103600083015261110281846110af565b905092915050565b61111381610eff565b82525050565b600060208201905061112e600083018461110a565b92915050565b600060a082019050818103600083015261114e81886110af565b905061115d602083018761110a565b61116a6040830186610d7b565b6111776060830185611009565b611184608083018461110a565b9695505050505050565b6000610120820190506111a4600083018c61110a565b6111b1602083018b61110a565b6111be604083018a61110a565b6111cb606083018961110a565b6111d86080830188610d7b565b81810360a08301526111ea81876110af565b905081810360c08301526111fe81866110af565b905081810360e083015261121281856110af565b905061122261010083018461110a565b9a9950505050505050505050565b7f4e487b7100000000000000000000000000000000000000000000000000000000600052603260045260246000fd5b7f4e487b7100000000000000000000000000000000000000000000000000000000600052602260045260246000fd5b600060028204905060018216806112a657607f821691505b602082108114156112ba576112b961125f565b5b50919050565b7f4e487b7100000000000000000000000000000000000000000000000000000000600052601160045260246000fd5b60006112fa82610eff565b91507fffffffffffffffffffffffffffffffffffffffffffffffffffffffffffffffff82141561132d5761132c6112c0565b5b60018201905091905056fea2646970667358221220bda050df6c64debf63cf5c93ace57eccc6446dc1ebbf50fe9016586b0383391f64736f6c63430008090033",
  "linkReferences": {},
  "deployedLinkReferences": {}
}